000001CSPVSW033125.002900409363020250331000315+0000000038180047.19
000002D4BRZ        2025-03-31 000000000142877.16 
000003DAAPL        2025-03-31 000000000931122.31 
000004DAESANDES    2025-03-31 000000000000356.25 
000005DAFPCAPITAL  2025-03-31 000000000001088.55 
000006DAGROCHAL    2025-03-31m000000000000580.93B
000007DAGUAS-A     2025-03-31 000000000001505.15 
000008DAGUASACO    2025-03-31 000000000001505.15 
000009DAIHC1       2025-03-31 000000000001255.47 
000010DALICORC1    2025-03-31 000000000009701.37 
000011DALMENDRAL   2025-03-31 000000000000083.57 
000012DAMZN        2025-03-31 000000000797529.97 
000013DANDINA-A    2025-03-31 000000000012005.76 
000014DANDINA-B    2025-03-31 000000000015613.60 
000015DANDINABCO   2025-03-31 000000000015613.60 
000016DANTARCHILE  2025-03-31 000000000033861.72 
000017DAQUACHILE   2025-03-31 000000000002054.00 
000018DATACOBC1    2025-03-31 000000000000062.77 
000019DAUSTRAC1    2025-03-31 000000000001597.87 
000020DAXXION      2025-03-31 000000000000009.68 
000021DAZUL AZUL   2025-03-31 000000000002419.01 
000022DBAC         2025-03-31 000000000174923.40 
000023DBACKUAC1    2025-03-31 000000000228267.49 
000024DBACKUSI1    2025-03-31 000000000023328.94 
000025DBANVIDA     2025-03-31 000000000002044.90 
000026DBAP         2025-03-31 000000000779672.94 
000027DBBVAC1      2025-03-31 000000000001757.66 
000028DBBVACOL     2025-03-31B000000000000178.00B
000029DBCI         2025-03-31 000000000154332.75 
000030DBCICO       2025-03-31 000000000154332.75 
000031DBCOLOMBIA   2025-03-31A000000000047000.00A
000032DBESALCO     2025-03-31 000000000003231.00 
000033DBHI         2025-03-31M000000000000323.00A
000034DBLUMAR      2025-03-31 000000000000829.02 
000035DBMC         2025-03-31N000000000002178.62B
000036DBOGOTA      2025-03-31M000000000030500.00A
000037DBRKB        2025-03-31 000000002232463.52 
000038DBROCALC1    2025-03-31 000000000011413.37 
000039DBROCALI1    2025-03-31 000000000008845.37 
000040DBSANTANDCO  2025-03-31 000000000000237.55 
000041DBSANTANDER  2025-03-31 000000000000237.55 
000042DBUENAVC1    2025-03-31 000000000059920.22 
000043DBVC         2025-03-31M000000000012600.00A
000044DBVLAC1      2025-03-31 000000000003081.61 
000045DC           2025-03-31 000000000297575.17 
000046DCALICHERAA  2025-03-31 000000000002728.77 
000047DCAMANCHACA  2025-03-31 000000000000180.46 
000048DCAP         2025-03-31 000000000022650.72 
000049DCAPCO       2025-03-31 000000000022650.72 
000050DCARACOLTV   2025-03-31m000000000003229.15B
000051DCARTAVC1    2025-03-31 000000000047822.04 
000052DCASAGRC1    2025-03-31 000000000013753.12 
000053DCBU0        2025-03-31 000000000621600.54 
000054DCBU7        2025-03-31 000000000575910.03 
000055DCCU         2025-03-31 000000000031667.02 
000056DCCUCO       2025-03-31 000000000031667.02 
000057DCELSIA      2025-03-31A000000000003940.00A
000058DCEMA        2025-03-31 000000000764582.50 
000059DCEMARGOS    2025-03-31A000000000010240.00A
000060DCEMENTOS    2025-03-31 000000000006705.49 
000061DCEMLIMC1    2025-03-31 000000000001769.07 
000062DCENCOMALCO  2025-03-31 000000000008207.04 
000063DCENCOSUD    2025-03-31 000000000012754.77 
000064DCENCOSUDCO  2025-03-31 000000000012754.77 
000065DCEUU        2025-03-31 000000000039666.91 
000066DCFMITNIPCO  2025-03-31 000000000016545.58 
000067DCGE         2025-03-31 000000000001365.99 
000068DCHILE       2025-03-31 000000000000551.97 
000069DCHILECO     2025-03-31 000000000000551.97 
000070DCINTAC      2025-03-31 000000000000251.97 
000071DCMPC        2025-03-31 000000000006861.19 
000072DCMPCCO      2025-03-31 000000000006861.19 
000073DCNEC        2025-03-31M000000000010700.00A
000074DCOLBUN      2025-03-31 000000000000587.16 
000075DCOLBUNCO    2025-03-31 000000000000587.16 
000076DCOLO COLO   2025-03-31 000000000000545.33 
000077DCOLOMBINA   2025-03-31m000000000000984.82B
000078DCOLOSO      2025-03-31 000000000000167.13 
000079DCOLTEJER    2025-03-31N000000000001331.67B
000080DCONCHATOCO  2025-03-31 000000000005343.81 
000081DCONCHATORO  2025-03-31 000000000005343.81 
000082DCONCIVILES  2025-03-31m000000000000523.31B
000083DCONCONCRET  2025-03-31A000000000000471.00A
000084DCOPEC       2025-03-31 000000000028808.19 
000085DCOPECCO     2025-03-31 000000000028808.19 
000086DCOPX        2025-03-31 000000000163773.24 
000087DCORAREC1    2025-03-31 000000000001940.27 
000088DCORAREI1    2025-03-31 000000000001129.92 
000089DCORFERIAS   2025-03-31N000000000000947.48B
000090DCORFICOLCF  2025-03-31M000000000016340.00A
000091DCORLINI1    2025-03-31 000000000004428.39 
000092DCPACASC1    2025-03-31 000000000004964.82 
000093DCREDIFAMI   2025-03-31m000000000002840.14B
000094DCRISTALES   2025-03-31 000000000012587.64 
000095DCSACOL      2025-03-31m000000000022969.58B
000096DCSPX        2025-03-31 000000002472946.51 
000097DCUPRUM      2025-03-31 000000000000313.06 
000098DCVERDEC1    2025-03-31 000000000178151.08 
000099DDESCAUCANO  2025-03-31m000000000004024.71B
000100DDPYACO      2025-03-31 000000000023712.96 
000101DECL         2025-03-31 000000000004297.04 
000102DECLCO       2025-03-31 000000000004297.04 
000103DECOPETROL   2025-03-31A000000000002075.00A
000104DEDELPA      2025-03-31 000000000000131.95 
000105DEIMI        2025-03-31 000000000146000.05 
000106DEISA        2025-03-31 000000000001275.43 
000107DELCONDOR    2025-03-31B000000000000600.00A
000108DELECMETAL   2025-03-31 000000000033030.02 
000109DELECTULUA   2025-03-31m000000000439852.90B
000110DEMBONOR-B   2025-03-31 000000000006179.47 
000111DEMCA        2025-03-31 000000000026448.10 
000112DEMGA        2025-03-31 000000000020701.15 
000113DEMPAQUES    2025-03-31m000000000013979.62B
000114DENAEX       2025-03-31 000000000068972.53 
000115DENDISPC1    2025-03-31 000000000004747.96 
000116DENELAM      2025-03-31 000000000000406.39 
000117DENELAMCO    2025-03-31 000000000000406.39 
000118DENELCHIL    2025-03-31 000000000000274.62 
000119DENELCHILCO  2025-03-31 000000000000274.62 
000120DENELDXCH    2025-03-31 000000000002155.12 
000121DENELGXCH    2025-03-31 000000000001910.58 
000122DENGEPEC1    2025-03-31 000000000002613.66 
000123DENGIEC1     2025-03-31 000000000004919.16 
000124DENJOY       2025-03-31 000000000000000.80 
000125DENKA        2025-03-31M000000000000017.60A
000126DENTEL       2025-03-31 000000000012798.75 
000127DENTELCO     2025-03-31 000000000012798.75 
000128DEQAC        2025-03-31 000000001361074.21 
000129DESTRA       2025-03-31m000000000000144.34B
000130DETB         2025-03-31M000000000000046.50A
000131DEXITO       2025-03-31A000000000001870.00A
000132DF           2025-03-31 000000000042043.65 
000133DFABRICATO   2025-03-31B000000000000002.16B
000134DFALABELLA   2025-03-31 000000000017416.86 
000135DFALABELLCO  2025-03-31 000000000017416.86 
000136DFERREYC1    2025-03-31 000000000003595.21 
000137DFGNTOLIMA   2025-03-31m000000000000009.21B
000138DFLOA        2025-03-31 000000000025980.71 
000139DFORUS       2025-03-31 000000000009236.65 
000140DFOSFOROS    2025-03-31 000000000001539.37 
000141DGASCO       2025-03-31 000000000006245.44 
000142DGASNATURAL  2025-03-31N000000000096916.89B
000143DGASORIENTE  2025-03-31m000000000001641.40B
000144DGE          2025-03-31 000000000838986.77 
000145DGEB         2025-03-31A000000000002850.00A
000146DGEHC        2025-03-31 000000000338319.37 
000147DGEV         2025-03-31 000000001279669.65 
000148DGOOGL       2025-03-31 000000000648218.41 
000149DGRUBOLIVAR  2025-03-31M000000000074880.00A
000150DGRUPOARGOS  2025-03-31A000000000020720.00A
000151DGRUPOAVAL   2025-03-31M000000000000561.00A
000152DGRUPOSURA   2025-03-31A000000000042500.00A
000153DGXTESCOL    2025-03-31 000000000050727.98A
000154DHABITAT     2025-03-31 000000000004838.02 
000155DHCOLSEL     2025-03-31 000000000017492.29A
000156DHF          2025-03-31 000000000005768.24 
000157DHITES       2025-03-31 000000000000312.98 
000158DIAM         2025-03-31 000000000003694.49 
000159DIAMCO       2025-03-31 000000000003694.49 
000160DIANSA       2025-03-31 000000000000112.42 
000161DIAUP        2025-03-31 000000000086518.55 
000162DIB01        2025-03-31 000000000482726.54 
000163DIBIT        2025-03-31 000000000196217.69 
000164DIBTA        2025-03-31 000000000023937.22 
000165DICHN        2025-03-31 000000000022664.59 
000166DICOLCAP     2025-03-31 000000000016368.00A
000167DIDSE        2025-03-31 000000000529842.26 
000168DIDTP        2025-03-31 000000001042833.52 
000169DIFS         2025-03-31 000000000139712.36 
000170DIHYA        2025-03-31 000000000028713.76 
000171DIJPA        2025-03-31 000000000233608.46 
000172DILC         2025-03-31 000000000047051.92 
000173DINCASTILLA  2025-03-31m000000000044271.50B
000174DINDISA      2025-03-31 000000000009456.12 
000175DINESA       2025-03-31m000000000000496.59B
000176DINRA        2025-03-31 000000000069063.51 
000177DINRETC1     2025-03-31 000000000119046.84 
000178DINVENSA     2025-03-31m000000000000599.74B
000179DINVERCAP    2025-03-31 000000000006641.28 
000180DISA         2025-03-31A000000000019100.00A
000181DISAC        2025-03-31 000000000364685.73 
000182DITAUCL      2025-03-31 000000000056732.35 
000183DITAUCLCO    2025-03-31 000000000056732.35 
000184DIUES        2025-03-31 000000000040063.03 
000185DIUFS        2025-03-31 000000000060173.15 
000186DIUHC        2025-03-31 000000000048216.06 
000187DIUIT        2025-03-31 000000000121771.50 
000188DIWVL        2025-03-31 000000000191480.97 
000189DJETS        2025-03-31 000000000087063.48 
000190DJNJ         2025-03-31 000000000695166.45 
000191DJPEA        2025-03-31 000000000024408.79 
000192DJPM         2025-03-31 000000001028246.09 
000193DLAS CONDES  2025-03-31 000000000054093.43 
000194DLIPIGAS     2025-03-31 000000000019760.66 
000195DLIT         2025-03-31 000000000162641.45 
000196DLQDA        2025-03-31 000000000025043.85 
000197DLTM         2025-03-31 000000000000065.45 
000198DLTMCO       2025-03-31 000000000000065.45 
000199DLUISAI1     2025-03-31 000000000255659.59 
000200DLUSURC1     2025-03-31 000000000015259.68 
000201DMALLPLAZCO  2025-03-31 000000000008642.02 
000202DMARINSA     2025-03-31 000000000000433.22 
000203DMARLY       2025-03-31m000000000010594.15B
000204DMASISA      2025-03-31 000000000000062.28 
000205DMAYAGUEZ    2025-03-31m000000000006566.35B
000206DMETA        2025-03-31 000000002415980.08 
000207DMINCORI1    2025-03-31 000000000013696.05 
000208DMINERA      2025-03-31 000000000069267.21 
000209DMINEROS     2025-03-31A000000000005650.00A
000210DMINSURI1    2025-03-31 000000000004907.75 
000211DMIRL        2025-03-31 000000000000096.41 
000212DMOLLER      2025-03-31 000000000000851.01 
000213DMOLYMET     2025-03-31 000000000016493.24 
000214DMOROCOI1    2025-03-31 000000000000330.99 
000215DMULTIFOODS  2025-03-31 000000000001173.83 
000216DMVOL        2025-03-31 000000000298706.96 
000217DNAVARINO    2025-03-31 000000000006597.30 
000218DNAVIERA     2025-03-31 000000000000162.29 
000219DNEXAPEC1    2025-03-31 000000000001814.73 
000220DNKE         2025-03-31 000000000266094.83 
000221DNORTEGRAN   2025-03-31 000000000000027.27 
000222DNU          2025-03-31 000000000042923.93 
000223DNUAMCO      2025-03-31 000000000018692.34 
000224DNUEVAPOLAR  2025-03-31 000000000000043.51 
000225DNUTRESA     2025-03-31M000000000125000.00A
000226DNVDA        2025-03-31 000000000454306.20 
000227DOCCIDENTE   2025-03-31B000000000018933.35B
000228DORO BLANCO  2025-03-31 000000000000019.78 
000229DPARAUCO     2025-03-31 000000000008312.59 
000230DPARAUCOCO   2025-03-31 000000000008312.59 
000231DPASUR       2025-03-31 000000000028148.46 
000232DPAZ         2025-03-31 000000000002128.24 
000233DPAZRIO      2025-03-31B000000000000004.21B
000234DPBR         2025-03-31 000000000060110.27 
000235DPEHUENCHE   2025-03-31 000000000012401.16 
000236DPFAVAL      2025-03-31A000000000000563.00A
000237DPFBBVACOL   2025-03-31N000000000000450.21B
000238DPFBCOLOM    2025-03-31A000000000042140.00A
000239DPFCARPAK    2025-03-31N000000000007494.24B
000240DPFCEMARGOS  2025-03-31M000000000009840.00A
000241DPFCORFICOL  2025-03-31M000000000016900.00A
000242DPFDAVVNDA   2025-03-31A000000000020500.00A
000243DPFE         2025-03-31 000000000106219.96 
000244DPFGRUPOARG  2025-03-31A000000000016100.00A
000245DPFGRUPSURA  2025-03-31A000000000038300.00A
000246DPFVILLA051  2025-03-31m000000000003581.74B
000247DPFVILLA053  2025-03-31B000000000001820.54B
000248DPFVILLAS    2025-03-31m000000000005603.36B
000249DPFVILLAS00  2025-03-31m000000000003581.74B
000250DPFVILLAS01  2025-03-31m000000000003581.74B
000251DPFVILLASCA  2025-03-31B000000000005061.53B
000252DPML         2025-03-31 000000000001144.36 
000253DPOLPAICO    2025-03-31 000000000035361.51 
000254DPOMALCC1    2025-03-31 000000000000256.80 
000255DPOPULAR     2025-03-31N000000000000235.33B
000256DPOTASIOS-A  2025-03-31 000000000001055.57 
000257DPROMIGAS    2025-03-31M000000000006700.00A
000258DPROTECCION  2025-03-31m000000000093777.34B
000259DPROVIDA     2025-03-31 000000000019347.67 
000260DPUCOBRE-A   2025-03-31 000000000022430.81 
000261DQUEMCHI     2025-03-31 000000000003430.59 
000262DQUINENCO    2025-03-31 000000000016268.93 
000263DQUINENCOCO  2025-03-31 000000000016268.93 
000264DRBOT        2025-03-31 000000000053298.61 
000265DRCNTELEVI   2025-03-31m000000000054472.75B
000266DRELAPAC1    2025-03-31 000000000000167.78 
000267DRIMINTC1    2025-03-31 000000000001084.27 
000268DRIOPAILA    2025-03-31m000000000005385.91B
000269DRIOPAILIND  2025-03-31m000000000009249.41B
000270DRIPLEY      2025-03-31 000000000001599.58 
000271DRIPLEYCO    2025-03-31 000000000001599.58 
000272DSALFACORP   2025-03-31 000000000002945.91 
000273DSALMOCAM    2025-03-31 000000000012416.11 
000274DSANFELIPE   2025-03-31m000000000000551.12B
000275DSANTA RITA  2025-03-31 000000000000659.73 
000276DSCCO        2025-03-31 000000000391094.01 
000277DSCOTIAC1    2025-03-31 000000000011984.04 
000278DSDEPSA      2025-03-31m000000000016043.99B
000279DSDHA        2025-03-31 000000000027837.68 
000280DSDIA        2025-03-31 000000000025366.62 
000281DSECURITY    2025-03-31 000000000001245.48 
000282DSGLD        2025-03-31 000000001259926.32 
000283DSIDERC1     2025-03-31 000000000002077.23 
000284DSK          2025-03-31 000000000004849.45 
000285DSMSAAM      2025-03-31 000000000000510.19 
000286DSMU         2025-03-31 000000000000774.08 
000287DSMUCO       2025-03-31 000000000000774.08 
000288DSOCOVESA    2025-03-31 000000000000356.56 
000289DSONDA       2025-03-31 000000000001769.92 
000290DSPMV        2025-03-31 000000000416454.34 
000291DSPXS        2025-03-31 000000004601872.82 
000292DSQM-B       2025-03-31 000000000166251.86 
000293DSQMBCO      2025-03-31 000000000166251.86 
000294DSUAS        2025-03-31 000000000063149.32 
000295DSUEEB       2025-03-31 000000000001658.04B
000296DSUISA       2025-03-31 000000000012572.90B
000297DSUM         2025-03-31 000000000220027.06 
000298DTELEFBC1    2025-03-31 000000000000513.60 
000299DTERPEL      2025-03-31M000000000011180.00A
000300DTITAN       2025-03-31B000000000022999.94B
000301DTRICOT      2025-03-31 000000000002023.17 
000302DTV          2025-03-31 000000000000670.69 
000303DUBER        2025-03-31 000000000305413.82 
000304DUNACEMC1    2025-03-31 000000000001769.07 
000305DURA         2025-03-31 000000000096075.83 
000306DVALSIMESA   2025-03-31N000000000003140.89B
000307DVAPORES     2025-03-31 000000000000228.71 
000308DVAPORESCO   2025-03-31 000000000000228.71 
000309DVENTANAS    2025-03-31 000000000000571.77 
000310DVILLAS      2025-03-31B000000000001998.32B
000311DVOLCABC1    2025-03-31 000000000000239.68 
000312DVOLCAN      2025-03-31 000000000010995.49 
000313DVOO         2025-03-31 000000002154202.80 
000314DVSPT        2025-03-31 000000000000017.60 
000315DWATTS       2025-03-31 000000000003232.68 
000316DZOFRI       2025-03-31 000000000004014.98 